:020000040800F2
:100000003804002065010008EF010008E70100083E
:10001000EB010008D901000875020008000000008B
:10002000000000000000000000000000F3010008D4
:10003000DD01000800000000F1010008F5010008E2
:100040007F0100087F0100087F0100087F01000890
:100050007F0100087F010008DF0100087F01000820
:100060007F0100087F0100087F0100087F01000870
:100070007F0100087F0100087F0100087F01000860
:100080007F0100087F0100087F0100087F01000850
:100090007F0100087F0100087F0100087F01000840
:1000A0007F0100087F0100087F0100087F01000830
:1000B0007F0100087F0100087F0100087F01000820
:1000C0007F0100087F0100087F0100087F01000810
:1000D0007F0100087F0100087F0100087F01000800
:1000E0007F0100087F0100087F0100087F010008F0
:1000F0007F0100087F0100087F0100087F010008E0
:100100007F0100087F0100087F0100087F010008CF
:100110007F0100087F0100087F0100087F010008BF
:100120007F0100087F0100087F0100087F010008AF
:100130007F0100087F0100087F0100087F0100089F
:100140007F0100087F0100087F0100087F0100088F
:10015000DFF80CD000F02EF800480047790B0008BB
:10016000380400200648804706480047FEE7FEE7BF
:10017000FEE7FEE7FEE7FEE7FEE7FEE7FEE7FEE757
:10018000F90100085101000830B50B460146002076
:100190002022012409E021FA02F59D4205D303FA49
:1001A00002F5491B04FA02F52844151EA2F10102CA
:1001B000F1DC30BD064C074D06E0E06840F001037D
:1001C00094E8070098471034AC42F6D3FFF7C4FF19
:1001D0008C0F0008AC0F000800BFFEE7704710B599
:1001E00000F0AAF910BD00BFFEE700BFFEE77047B0
:1001F00070477047704700001B48006840F470006B
:10020000194908601948006820F00100401C17498E
:10021000086000BF15480068C0F340000028F9D00E
:100220001248406820F0F000F0301049486008465D
:10023000406820F00300486000BF0C484068C0F3ED
:1002400081000028F9D10948006809490840074998
:1002500008600020486008634FF41F008860C803EE
:10026000014980390860704788ED00E000100240C5
:10027000FFFFF2FE00BFFEE70FB4054B10B503A968
:10028000044A029800F018F810BC5DF814FB000056
:10029000CD0900082C00002002E008C8121F08C188
:1002A000002AFAD170477047002001E001C1121FF7
:1002B000002AFBD1704700002DE9FF4F89B09B4613
:1002C0000446002506E025280BD05A460B99904796
:1002D000641C6D1C20780028F5D10DB02846BDE8BF
:1002E000F08F0027B8460122474900E0074314F881
:1002F000013F203B02FA03F00842F7D120782E2874
:1003000019D114F8010F47F004072A280ED06FF016
:100310002F022078A0F1300109290CD808EB8801C0
:1003200002EB410100EB0108641CF2E70A98641C2F
:1003300050F8048B0A9020780028CED0642808D08A
:10034000692806D075281ED05A460B9990476D1C17
:1003500058E00A994FF00A0901C90A91002802DA07
:1003600040422D2102E0390504D52B218DF82010C3
:10037000012103E0F90704D02021F7E78A4608AEFF
:100380000DE00021FAE70A994FF00A0901C90A9124
:10039000F7E74946FFF7F8FE303106F8011D00285F
:1003A000F7D1ADEB060000F12009780701D44FF03A
:1003B0000108C84502DDA8EB090000E000208046E6
:1003C000002706E008A85A46C05D0B9990476D1CAF
:1003D0007F1C5745F6DB04E030205A460B999047C6
:1003E0006D1CB8F10001A8F10108F5DC05E016F874
:1003F000010B5A460B9990476D1CB9F10001A9F108
:100400000109F4DC641C65E70928010010B500F05F
:100410002DFA002000F030F8012000F02DF8022025
:1004200000F02AF8002000F04FF8012000F04CF80E
:10043000022000F049F800F001F810BD1CB50121C0
:100440000B4800F077F9684600F0DAFA01208DF8E1
:10045000070000208DF804008DF8060001200090B0
:1004600028208DF805006946024800F027FB1CBDD6
:1004700002001800000801401CB504460F4951F85D
:100480002400012100F056F9684600F0B9FA012075
:100490008DF8070000208DF8040010208DF806006C
:1004A000074830F81400009004208DF80500054935
:1004B00051F82400694600F001FB1CBD1800002023
:1004C0001000002004000020022800DD70470649CB
:1004D00031F8101031B1044931F81010034A52F8C4
:1004E0002020116100BFF1E710000020040000206F
:1004F0000EB501214FF4C01000F01CF90021084690
:1005000000F08AFA684600F007FA01208DF8090029
:1005100000208DF800000120019000208DF80800D7
:10052000684600F007FA032000F0B8FB00221146ED
:10053000062000F04FFB0EBD10B5052000F0B2F90B
:10054000012000F0F1F90121084800F00BFB01281F
:100550000AD107480078042803D101200449087013
:1005600002E004200249087010BD000000080140AC
:10057000000000200349496860F30711014A5160F7
:1005800070470000001002400349496860F30A21E7
:10059000014A516070470000001002400349496859
:1005A00060F3CD21014A5160704700000010024005
:1005B000052827D2DFE800F0030A11181F00134AAC
:1005C000126861F30002114B1A601CE00F4A1268B6
:1005D00061F310420D4B1A6015E00C4A126861F38A
:1005E00018620A4B1A600EE0084A126A61F30002B0
:1005F000064B1A6207E0054A526A61F30002034B98
:100600005A6200E000BF00BF7047000000100240C7
:10061000F0B501460022002500260023002400F04A
:100620001DF9074627B1012F05D0022F2CD105E077
:100630002D4808602BE02C48086028E02B484068D3
:10064000C0F3004629484068C0F383422748406809
:10065000C0F341750DB90F2A03D12801401C024493
:1006600000E0921C1EB92248504308600BE01F486E
:100670004068C0F3404018B11D485043086002E094
:1006800019485043086002E01748086000BF00BFE7
:1006900016484068C0F303131648C45C0868E0407D
:1006A000486012484068C0F302231348C45C48689D
:1006B000E040C8600D484068C0F3C2230F48C45CE6
:1006C0004868E040886009484068C0F30073074804
:1006D0004068C0F3813040EA83030948C45C8868FD
:1006E000B0FBF4F00861F0BD00127A000010024087
:1006F00000093D00540F0008640F00086C0F00084B
:10070000740F000810B501460020094B03EB11429D
:10071000126801F01F040123A3401A4001F01F04D6
:100720000123A3409A4200D000E0012010BD000048
:100730000010024010B501290DD10E4B03EB104201
:10074000126800F01F040123A3401A43094C04EB74
:1007500010431A600CE0074B03EB1042126800F0E4
:100760001F040123A3409A43024C04EB10431A6078
:1007700010BD00000010024010B530B9184B5B6886
:1007800023F48033164C636017E0154B5B6823F449
:10079000803303F58033124C6360012805D1234672
:1007A0005B6823F40033636007E00D4B5B6823F460
:1007B000003303F500330A4C6360094B5B6861F357
:1007C0009543074C63600C09054B5B6864F35E73EB
:1007D000034C636023465B6862F3DF73636010BDA4
:1007E000001002401648006820F00100401C144927
:1007F000086000BF12480068C0F340000028F9D02C
:100800000F48406820F0F000F0300D49486008467D
:10081000406820F00300486000BF09484068C0F30A
:1008200081000028F9D106480068064908400449BB
:1008300008600020486008634FF41F00886070471C
:1008400000100240FFFFF2FE0349496860F3010116
:10085000014A5160704700000010024002484068A1
:10086000C0F38100704700000010024010B5042062
:1008700000F0CEFA074800680749B0FBF1F00749DD
:100880000860084600684FF47A71484304490860DC
:1008900010BD00003400002040420F002400002062
:1008A00028000020002131E032280ADD194A1268B0
:1008B00032235A434FF0E0235A61A0F1320290B242
:1008C00006E0144A126842434FF0E0235A610020C8
:1008D00000224FF0E0239A611A46126942F00102A9
:1008E0001A6100BF4FF0E022116901F001021AB154
:1008F00001F48032002AF5D04FF0E022126922F094
:1009000001024FF0E0231A6100229A610028CBD146
:100910007047000028000020002141724160012141
:1009200001720170704700000149086070470000C3
:1009300014040140014600204868234A126882439B
:10094000214B1A601A1D126882431B1D1A604A7AD5
:100950000AB30A782AB91A1F126802431B1F1A60C9
:1009600006E0194A121D12680243174B1B1D1A603C
:10097000154A083212688243134B08331A601A1D55
:10098000126882431B1D1A600A7A2AB91A1F12685C
:1009900002431B1F1A6016E00A7A012A07D10A4A8D
:1009A0000C3212680243084B0C331A600BE0064A03
:1009B000083212680243044B08331A601A1D126889
:1009C00002431B1D1A6070470004014070B50446C5
:1009D0000D4600BF8021094800F06DFA0028F9D0CB
:1009E000A1B2064800F05EFA00BF4021034800F0C3
:1009F00062FA0028F9D0204670BD0000003801409E
:100A00004FF6FF7101600021817101710421417174
:100A10000121C1717047000010B500228B071C0F27
:100A20000F2303FA04F28B1033B1012B13D0022BE6
:100A300020D0032B3CD12CE01F4B9B6893431E4CD2
:100A4000A36023469B688C07240F00FA04F4234319
:100A5000194CA3602DE0184BDB689343164CE36000
:100A60002346DB688C07240F00FA04F42343124C5E
:100A7000E3601EE0104B1B6993430F4C2361234638
:100A80001B698C07240F00FA04F423430A4C2361EA
:100A90000FE0094B5B699343074C636123465B6935
:100AA0008C07240F00FA04F42343034C636100E035
:100AB00000BF00BF10BD000000000140F0B50A46B5
:100AC0001588ABB29579032D01D100241AE09579F0
:100AD00065B9557905F00F045579182D01D10361D9
:100AE00010E05579282D0DD143610BE0957905F083
:100AF0000805167906F004063543D67906F0030694
:100B000045EA0604DDB2A5B1002110E001258D40C3
:100B10001D405DB105688F000F26BE40B5430560DE
:100B200005688E0004FA06F635430560491C08295D
:100B3000ECD3FF2B15DD1B12002110E001258D40A9
:100B40001D405DB145688F000F26BE40B54345602E
:100B500045688E0004FA06F635434560491C0829AD
:100B6000ECD3F0BD0246002093680B408B4200D0CE
:100B700000E001207047000000F0A4F8FFF746FCF9
:100B8000FFF7B6FC4FF4E13000F056F904A0FFF790
:100B900073FB0A490AA0FFF76FFB00BFFEE70000E6
:100BA00061743332206D637520696E697469616C9C
:100BB000697A65206F6B2E0D0A00000000127A0022
:100BC0004849434B5F56414C5545203D2025642004
:100BD000487A0A002DE9F0470B4614464FF0000C06
:100BE00000BF2C4A1268C2F302211D4626460A465F
:100BF000C2F10709B9F1040F02D94FF0040901E06D
:100C0000C2F10709C84602F10409B9F1070F02D27F
:100C10004FF0000901E0A2F103094F464FF001092E
:100C200009FA08F9A9F1010909EA050909FA07F918
:100C30004FF0010A0AFA07FAAAF1010A0AEA060ABB
:100C400049EA0A09CC4601466246002904DB150739
:100C50002E0E114D6E5407E015072F0E0D4D0C355D
:100C600001F00F06361FAF5500BF014600290DDB0E
:100C700000BF00BF01F01F050122AA404D09AD00D1
:100C800005F1E025C5F8002100BF00BF00BFBDE8A9
:100C9000F08700000CED00E000E400E000BF00F091
:100CA0000702064B19684FF6FF031940044B0B432C
:100CB00043EA0221014B196000BF70470CED00E0D0
:100CC0000000FA0510B5FFF78DFD01210020FFF7A8
:100CD0006FFC4FF4FA7000F032F900BF0120FFF70B
:100CE00011FD0128FAD1012211210020FFF744FD56
:100CF00001210220FFF75CFC00BF1920FFF702FD75
:100D00000128FAD10420FFF749FC0420FFF73CFC3E
:100D10000A20FFF72FFC0220FFF796FD00BFFFF728
:100D20009DFD0228FBD14FF4FA7000F008F908206D
:100D3000FFF720FC4FF4FA7000F001F90020FFF7F4
:100D400019FC00F001F810BD2DE9F0470024002542
:100D500000260027A046FFF781FD8146B9F1000F6C
:100D600006D0B9F1010F07D0B9F1020F31D107E078
:100D700022482349086030E02048214908602CE0DF
:100D800020484068C0F300461E484068C0F38344D2
:100D90001C484068C0F341750DB90F2C03D12801E0
:100DA000401C044400E0A41C26B9174860431449C1
:100DB00008600DE013484068C0F3404020B112487D
:100DC00060430F49086003E00C4860430C49086029
:100DD00003E00A480A49086000BF00BF09484068AC
:100DE000C0F30317094810F807800548006820FA87
:100DF00008F003490860BDE8F087000000127A009F
:100E0000340000200010024000093D007C0F000863
:100E1000042808D14FF0E021096941F004014FF0A6
:100E2000E022116107E04FF0E021096921F004019F
:100E30004FF0E022116170471CB5044601211648AD
:100E4000FFF778FC012114480C38FFF773FC684663
:100E5000FFF7D6FD01208DF8070000208DF8040073
:100E600008208DF806008001009004208DF8050010
:100E700069460A48FFF722FE00231A462146084821
:100E800000F022F80121064800F054F8012104483E
:100E900000F00CF81CBD00000E0018000008014016
:100EA00000380140C1F3080242607047C26861F334
:100EB0004D32C260704702461068084008B10120F8
:100EC00070470020FCE700002DE9F04385B00446A0
:100ED0000F46904699466846FFF79AFB14488442AD
:100EE00001D1029E00E0039E06EB86004000B0FBAD
:100EF000F7F50A20B5FBF0F100FB1150052803D2ED
:100F00000A20B5FBF0F503E00A20B5FBF0F0451C24
:100F1000A06865F30F00A060E06868F30C30E06043
:100F2000206969F30D30206105B0BDE8F083000051
:100F300000380140C26861F3C302C260704708B55F
:100F40000021009102E00099491C00910099814222
:100F5000F9D308BD000000000000000001020304F6
:100F60000607080900000000010203040000000059
:100F70000102030402040608020C0810000000002D
:100F8000000000000102030406070809AC0F000876
:100F9000000000203800000098020008E40F00085C
:100FA0003800002000040000A80200080100000032
:100FB00000140140001401400014014000200040D2
:100FC000008000000500180005001800050018004A
:100FD0000000000000000000000000000100000010
:040FE00000127A0081
:04000005080001519D
:00000001FF
