:020000040800F2
:100000006007002025020008690500086105000856
:1000100065050008590500084506000800000000B5
:100020000000000000000000000000007D05000846
:100030005D050008000000006D050008810500084E
:100040003F0200083F0200083F0200083F0200088C
:100050003F0200083F0200083F0200083F0200087C
:100060003F0200083F0200083F0200083F0200086C
:100070003F0200083F0200083F0200083F0200085C
:100080003F0200083F0200083F0200083F0200084C
:100090003F0200083F0200083F0200083F0200083C
:1000A0003F0200083F0200083F0200083F0200082C
:1000B0003F020008F10500083F0200083F02000867
:1000C0003F0200083F0200083F0200083F0200080C
:1000D0003F0200083F0200083F0200083F020008FC
:1000E0003F0200083F0200083F0200083F020008EC
:1000F0003F0200083F0200083F0200083F020008DC
:100100003F0200083F0200083F0200083F020008CB
:100110003F0200083F0200083F0200083F020008BB
:100120003F0200083F0200083F0200083F020008AB
:100130003F0200083F0200083F0200083F0200089B
:100140003F0200083F0200083F0200083F0200088B
:1001500000F002F800F057F814A696E8000CB2443C
:10016000B344DA4501D100F04EF8BAE80F000FA60B
:1001700096E83000A5EB040504EB0607AAEB07049C
:10018000A7F101074FEA15154FEA3414A4F1010451
:10019000AC4201D300F037F813F0010F18BFFB1A7F
:1001A00043F0010300F001F8DBE71847EC11000011
:1001B0000C120000103A24BF78C878C1FAD8520750
:1001C00024BF30C830C144BF04680C6070470000D1
:1001D000704700000023002400250026103A28BFA5
:1001E00078C1FBD8520728BF30C148BF0B607047A9
:1001F000642900F07980002070471FB501F004F8F1
:100200001FBD10B510BD00F04DF91146FFF7F5FF09
:1002100000F0F0FB00F06BF903B4FFF7F2FF03BC52
:10022000AFF300800948804709480047FEE7FEE732
:10023000FEE7FEE7FEE7FEE7FEE7FEE7FEE7FEE796
:1002400004480549054A064B70470000850500082B
:1002500051010008600100206007002060030020B9
:1002600060030020704700000FB4044910B503AAD2
:10027000029800F0E9F810BC5DF814FBC8000020FB
:100280002DE9F0410E460446002020622046E16838
:10029000884730B3252805D0D4E901219047206A4A
:1002A000401CF2E7E168204600278847050018D087
:1002B000A5F14100192802D820354FF400673246D5
:1002C000294620462760FFF793FF40B1012804D05C
:1002D000F61D26F007060836D8E7361DD6E728466D
:1002E000DAE7206ABDE8F0812DE9F04106460024F6
:1002F00010687529314616A510D0AFF3008000288C
:1003000002DA404213A507E031688A0701D512A539
:1003100002E0490704D511A5012401E0AFF30080F4
:1003200000210A2206F1240709E0B0FBF2FCB0FB31
:10033000F2F302FB1C00303078541846491C0028A8
:10034000F3D123462A463046BDE8F04100F022B8FA
:10035000000000002D0000002B0000002000000025
:1003600010B5044603E000F0D5FA401C09D014F89B
:10037000010B05490028F6D1BDE810400A2000F025
:10038000C9BA4FF0FF3010BDC80000207047704759
:10039000704770472DE9F0470D469946924604464E
:1003A00000F124080168880604D5E06921F01001F5
:1003B000216000E00120A84201DD471B00E000278A
:1003C000A1697A1902EB0900081AA0612078C00619
:1003D00002D42046AFF30080002608E0D4E90121D2
:1003E0001AF806009047206A401C761C20624E4591
:1003F000F4DB2078C0060AD52046AFF3008006E083
:10040000D4E9012130209047206A401C2062381E28
:10041000A7F10107F4DC07E0D4E9012118F8050091
:100420009047206A401C2062281EA5F10105F3DCDC
:100430002046AFF300802078000602D50220BDE8F8
:10044000F0870120FBE70000074B70B50D467B44A9
:1004500000F011F80446284600F020F810B14FF0E3
:10046000FF3070BD204670BDC304000001694A1C06
:1004700002610878704700B58FB0CDE901310021E5
:10048000059105497944CDE9031011466846FFF707
:10049000F7FE0FB000BD0000E5FFFFFF007B00F09E
:1004A00080007047754600F02BF8AE46050069469F
:1004B000534620F00700854618B020B5FFF7C0FE70
:1004C000BDE820404FF000064FF000074FF0000855
:1004D0004FF0000BAC46ACE8C009ACE8C009ACE892
:1004E000C009ACE8C00921F007018D46704710B57E
:1004F0000446AFF300802046BDE81040FFF78CBEF5
:1005000000487047080000204FF0000200B5134675
:1005100094469646203922BFA0E80C50A0E80C5023
:10052000B1F12001BFF4F7AF090728BFA0E80C50D4
:1005300048BF0CC05DF804EB890028BF40F8042BCD
:1005400008BF704748BF20F8022B11F0804F18BF3A
:1005500000F8012B70470000FEE700007047000024
:10056000FEE70000FEE70000704700007047000053
:1005700041F20030C0F60000FFF7F2BE7047000005
:10058000704700004EF68850CEF20000026841F23B
:10059000040142F47002C4F20201026051F8042C1A
:1005A00042F0010241F8042C51F8042C9207FBD5CB
:1005B0000A6842F0F0020A600A6822F003020A6048
:1005C0000A6812F00C0FFBD151F8042C4FF6FF73A0
:1005D000CFF6F2631A4041F8042C00220A60CA6286
:1005E0004FF41F024A604FF0006140F8801C7047D2
:1005F00040F21040C4F200000168C90708BF70470C
:100600006FF00101016040F268010020C2F20001B8
:100610004FF6FF7203E000BF01300C2809D031F81B
:100620003030002BF8D093421CBF013B21F8303012
:10063000F2E740F21C10C2F2000001880131018093
:1006400070470000FEE70000B0B540F21E15C2F290
:10065000000528780022411CC8B2062841F2482033
:10066000C0F6000088BF0021297000BF831884589D
:100670009B880C32482A6361F8D1C9B206290A4620
:1006800028BF062232B10C3850F80C3F013A84885A
:100690001C61F9D141F2D920C0F60000FFF7E4FD5A
:1006A0002A7841F23A20C0F6000030F812103823C0
:1006B00001EB81004000C4F2000318604FF080405D
:1006C00003684AB143F00103036041F29020C0F691
:1006D0000000FFF7C9FD08E023F00101016041F2CD
:1006E0003E30C0F60000FFF73BFE297841F2B7200C
:1006F000C0F60000FFF7B8FD41F21430C0F600006C
:10070000BDE8B040FFF72CBE2DE9F04381B040F2C8
:100710002810C2F200000468002C00F0F8800025C8
:10072000052601274FF042084FF031090DE02269FC
:100730001030A07012B120469047E17801F0F80027
:10074000E070A46A002C00F0E280A168207988475C
:10075000E278510702D0218801312180B0EBD21F0D
:1007600002D102F0C7010EE007EBD20101F007034E
:1007700002F0C70141EAC301032BE17004D302F088
:10078000470141EAC011E17001F007000428D5D803
:100790000FF2080202EB8002974600BF00F008B893
:1007A00000F02DB800F041B800F063B800F016B8C2
:1007B000A378C8B2C1F38012B2EBD01F03F00F00D0
:1007C00065D1E268A0701AB120469047A078E17820
:1007D00000F0F00001302580A07054E0A378C8B28A
:1007E000C1F38012B2EBD01F03F00F009FD1616AFA
:1007F00060300029A070A4D020468847A1E7C8B285
:10080000C1F38012B2EBD01F44D12088C92898D3FD
:10081000A078226A66F31F10A07012B1204690479C
:10082000E17801F0F80004308AE7C8B2C1F3801221
:10083000B2EBD01F3CD1A078E16800F00F00A070AF
:1008400011B120468847A07800F00F010F2906D08B
:10085000411C01F00F0100F0F0000844A070616934
:1008600009B120468847E078258000F0F800033081
:1008700066E7C8B2C1F38012B2EBD01F2BD120883B
:100880003D28FFF45EAF01F0F800013058E78030FA
:10089000A07056E7A078226967F31F10A07012B10C
:1008A00020469047E17801F0F8002580023047E7C4
:1008B00020883D28FFF445AFA07800F00F00022803
:1008C0001ED001287FF43AAFA26984F80290002A72
:1008D0007FF431AF32E7A078216967F31F10A07071
:1008E00009B12046884720883B2805D8E078258034
:1008F00000F0F800023023E7E07800F0F8001FE78E
:10090000E26984F80280002A7FF415AF16E701B08F
:10091000BDE8F08343F60001C4F201010A68120643
:10092000FCD502466FF35F224A6000BF0A68520698
:10093000FCD57047B0B58B790A88032B0BD07BB9F7
:100940004979282901F00F0E18D0182908BF026133
:10095000110616D12EE04FF0000E110611D129E03C
:1009600003F0080C0B79C97903F00403634401F028
:10097000030103EB010E110603D11BE042611106D6
:1009800018D000234FF00F0C002104E0013108299A
:1009900003F104030ED022FA01F4E407F6D0046850
:1009A0000CFA03F5AC43046004680EFA03F52C431B
:1009B0000460EBE7B2F5807F38BFB0BD120A0023B8
:1009C0004FF00F0C002104E00131082903F104036A
:1009D0000ED022FA01F4E407F6D044680CFA03F5CD
:1009E000AC43446044680EFA03F52C434460EBE7E3
:1009F000B0BD000082B041F20408C4F2020858F809
:100A0000040C40F0010048F8040C00BF58F8040C36
:100A10008007FBD5D8F8000040F0F000C8F80000CF
:100A2000D8F8000020F00300C8F80000D8F8000053
:100A300010F00C0FFAD158F8040C4FF6FF71CFF6F6
:100A4000F261084048F8040C00204FF41F01C8F878
:100A50000000C8F82C00C8F8041058F8041C41F035
:100A6000010148F8041C0090009880087C2807D8F1
:100A70000098013000900098B0F5FA7FF8D300BFDD
:100A800058F8040C8007FBD5D8F80000012120F4A9
:100A90008030C8F80000D8F8000061F39540C8F82D
:100AA0000000D8F8000061F35E70C8F80000D8F8C4
:100AB000000040F00040C8F8000058F8040C40F076
:100AC000807048F8040C00BF58F8040C8001FBD576
:100AD000D8F80000042161F3CD20C8F80000D8F850
:100AE000000061F30A20C8F80000D8F800000A21CD
:100AF00061F30710C8F80000D8F80000022161F384
:100B00000100C8F8000000BFD8F8000000F00C0099
:100B10000828F9D100200090009989087C2906D87E
:100B20000099013100910099B1F5FA7FF8D3D8F816
:100B30000010082262F30711C8F800100090009816
:100B400080087C2807D800BF0098013000900098EA
:100B5000B0F5FA7FF8D3D8F8000041F2002920F070
:100B6000F000C8F80000D8F80000C0F27A0900F0E0
:100B70000C000828484622D1D8F80000D8F8001008
:100B8000D8F80020C1F38341C2F3417213015D1C08
:100B90000F292B4618BF0223002A18BF2B46C0037B
:100BA00003EB010006D5D8F80010890302D400FB3E
:100BB00009F004E040F60011C0F23D01484340F264
:100BC000000BC2F2000BCBF80000D8F8001041F285
:100BD0002222C1F30311C0F60002515C4EF2100252
:100BE000C840CEF20002CBF8000010684DF68361D9
:100BF00040F004001060DBF80000C4F21B31A0FBE1
:100C00000101880C40F22411C2F20001086008685A
:100C10004FF47A71484340F22011C2F2000108609B
:100C2000D8F8140040F60007C4F2010740F0200095
:100C300040F2004407F54065C8F81400C0F21014F3
:100C40004FF4005A694628460194CDF800A0FFF7FA
:100C500071FED8F814004FF4804640F02000C8F828
:100C600014006946284601940096FFF763FED8F801
:100C70001400694640F02000C8F8140001944FF4B5
:100C8000004428460094FFF755FEC7F810ACC7F89B
:100C9000106CC7F8104CD8F814004FF0010A40F05F
:100CA0000400C8F8140042F60000C0F200100190E1
:100CB00069463846CDF800A0FFF73CFED8F814008E
:100CC000694640F48040C8F81400D8F8140040F099
:100CD0000400C8F8140040F20040C0F2081001906F
:100CE0004FF4007000903846FFF724FED8F800005B
:100CF00000F00C00082823D1D8F80000D8F8001024
:100D0000D8F80020C1F38341C2F3417213015E1C85
:100D10000F29334618BF0223002A18BF3346C003E9
:100D200003EB010006D5D8F80010890302D400FBBC
:100D300009F905E040F60011C0F23D0100FB01F9A0
:100D4000D8F8000041F22221C0F30310C0F60001E0
:100D5000085CD8F80010D8F8001041F23222C1F334
:100D6000C221C0F60002515C29FA00F0C84000EB35
:100D700080004BF2C5314000C9F2A211A0FB011264
:100D800045F2D521CEF60411A0FB0101D8F80000F0
:100D9000D8F80000100C0A0D02EB8203A0EB430010
:100DA000042843F60C00C4F2010088BF0AEB11527C
:100DB00050F8041C4FF6FF739943114440F8041C8B
:100DC000016840F2284221F4805101604168C4F278
:100DD000000221F4405141600168092341F00801FB
:100DE000016001684FF0000941F400510160D8F83A
:100DF000180041F2597140F00200C8F81800DBF801
:100E00000000CDF2B711A0FB01014FF0FF3040F21E
:100E1000040B00EB5131C4F2000B53601160DBF89E
:100E200010144FF6FF0341F00101CBF81014DBF86A
:100E3000081441F2482441F00101CBF808144EF6A1
:100E40000C51CEF200010A68C0F600041A4040F2CC
:100E50000033C0F2FA531A430A6009686D46C1F3C1
:100E6000022181F00702042A28BF0422033900FA74
:100E700002F038BF49462AEA000088404EF21D4180
:100E80000001CEF2000108704EF210014FF0005048
:100E9000CEF20001C1F8F000DBF8FC0340F00100E5
:100EA000CBF8FC0340F20040C0F21010019000BFEC
:100EB00004EB0900816801F01F0208EB114151F8B1
:100EC000043C0AFA02F21A4341F8042C54F809606F
:100ED0008788304629460097FFF72CFD09F10C0959
:100EE000B9F1480F7761E3D141F27830C0F60000E4
:100EF000FFF736FA40F23415C2F2000528462C21DD
:100F0000FFF702FB4FF48140688041F2F110C0F618
:100F10000000A8600020287140F22810C2F20000F2
:100F2000016840F24962C0F60002AA6129B10A468E
:100F3000AA4204D0926A002AFAD1A962056040F25E
:100F40001E15C2F200050020287000BF211822588B
:100F500089880C3048285161F8D141F2D920C0F677
:100F600000000021FFF780F92A7841F23A20C0F60C
:100F7000000030F8121001EB81004FEA4000CBF87E
:100F800034004FF0804003684AB143F0010303602E
:100F900041F29020C0F60000FFF766F908E023F068
:100FA0000101016041F23E30C0F60000FFF7D8F9C0
:100FB00041F25630C0F600004FF6FF75FFF7D0F94A
:100FC000D8F81800694640F00100C8F81800D8F8B1
:100FD000140040F00400C8F814000220009040F211
:100FE0000040C0F20810019040F60000C4F2010079
:100FF000FFF7A0FC4FF08040016840F22C1241F452
:101000008061016040F2E731CBF828104721CBF82E
:101010002410DBF81010C2F2000241F00101CBF8FD
:1010200010100168062321F070010160016821F4AD
:1010300040710160002113800123C2F802109171F8
:101040005371DBF80030DBF81C7023F40063CBF83D
:101050000030DBF8003027F0A007CBF80030DBF8D9
:10106000003023F48063CBF80030DBF80030CBF89D
:1010700000301378DBF8146003F0070326F4E04631
:1010800046EA0333CBF814301679D37847EAC6170B
:1010900047EA4313CBF81C305779927923F0500379
:1010A00043EA821242EA0712CBF81C20CBF8341034
:1010B000DBF8142042F40062CBF81420026842F0FE
:1010C00080020260026842F00102026040F26800A1
:1010D000C2F20000002200BF00EBC20320F8325031
:1010E00001320C2A5960F7D141F20030C0F60000FD
:1010F000FFF736F940F26801C2F2000140F2715088
:101100006FF00B02C0F600000B4603E0013203F162
:1011100008030ED21F88AF42F8D05F688742F5D12E
:1011200002F10C0040F6B83201EBC0001A80428098
:1011300016E040F26802C2F200020021134600BF2E
:101140001F88AF4205D001310C2903F10803F7D104
:1011500006E040F6B83702EBC1011F804F804860BF
:1011600040F26804C2F2000440F209706FF00B0113
:10117000C0F60000224603E0013102F108020DD260
:101180001388AB42F8D053688342F5D101F10C00CB
:10119000052104EBC0001180418014E040F2680298
:1011A000C2F20002002113461F88AF4205D0013170
:1011B0000C2903F10803F7D105E0052702EBC10173
:1011C0001F804F804860002505E000BF681CB0F11B
:1011D0000C0518BF054634F835000028F6D104EB9D
:1011E000C5004188406824F835108047EEE70000CC
:1011F00000281CBF0020704740F60800C4F2010020
:10120000006800F001007047F1EE100A4FF6FF7120
:10121000C0F2C03120EA010040F04070E1EE100A57
:1012200070470000000000000000010203040607F0
:10123000080900000000010203040000140023005C
:101240003200410050006400000C01400001000029
:1012500003001800001001400020000004001800E6
:101260000010014000400000040018000010014080
:10127000008000000400180000140140010000007C
:1012800005001800001401400200000005001800CD
:101290005B455D2046616E2050574D20736574207C
:1012A000746F202564252520284C6576656C2025E3
:1012B00064290D0A0D0A005B455D20537065656465
:1012C000206368616E67656420746F206C65766565
:1012D0006C2025640D0A0D0A005B455D2053706586
:1012E0006564204C454473207570646174656420A6
:1012F000746F206C6576656C2025640D0A0D0A00FC
:101300005B455D2068656C6C6F20776F726C642143
:101310000D0A0D005B455D2053696E676C652063A7
:101320006C69636B202D205370656564206C657655
:10133000656C206368616E6765640D0A0D005B452E
:101340005D2046616E2050574D2064697361626C68
:1013500065640D0A0D005B455D204C454420616EBF
:101360006420427574746F6E20496E697469616C93
:10137000697A65640D0A0D005B455D2053706565F3
:1013800064204C45447320496E697469616C697AC4
:1013900065640D0A0D000000B8130008000000206D
:1013A00008000000B4010008C01300080800002075
:1013B00058070000D401000800127A000000000065
:04000005080001519D
:00000001FF
