:020000040800F2
:10000000600700201D020008590300085103000882
:1000100055030008490300083504000800000000EB
:100020000000000000000000000000006D03000858
:100030004D030008000000005D0300087103000884
:1000400037020008370200083702000837020008AC
:10005000370200083702000837020008370200089C
:10006000370200083702000837020008370200088C
:10007000370200083702000837020008370200087C
:10008000370200083702000837020008370200086C
:10009000370200083702000837020008370200085C
:1000A000370200083702000837020008370200084C
:1000B00037020008E1030008370200083702000891
:1000C000370200083702000837020008370200082C
:1000D000370200083702000837020008370200081C
:1000E000370200083702000837020008370200080C
:1000F00037020008370200083702000837020008FC
:1001000037020008370200083702000837020008EB
:1001100037020008370200083702000837020008DB
:1001200037020008370200083702000837020008CB
:1001300037020008370200083702000837020008BB
:1001400037020008370200083702000837020008AB
:1001500000F002F800F052F814A696E8000CB24441
:10016000B344DA4501D100F049F8BAE80F000FA610
:1001700096E83000A5EB040504EB0607AAEB07049C
:10018000A7F101074FEA15154FEA3414A4F1010451
:10019000AC4201D300F032F813F0010F18BFFB1A84
:1001A00043F0010300F001F8DBE718475C0D0000A5
:1001B0007C0D0000103A24BF78C878C1FAD85207E5
:1001C00024BF30C830C144BF04680C6070470000D1
:1001D000704700000023002400250026103A28BFA5
:1001E00078C1FBD8520728BF30C148BF0B607047A9
:1001F0001FB500F01DFE1FBD10B510BD00F04AF880
:100200001146FFF7F5FF00F0B3FA00F068F803B409
:10021000FFF7F2FF03BCAFF30080000009488047FE
:1002200009480047FEE7FEE7FEE7FEE7FEE7FEE7D8
:10023000FEE7FEE7FEE7FEE704480549054A064BF0
:10024000704700007503000851010008600100209C
:10025000600700206003002060030020704700005A
:1002600010B5044603E000F013FA401C09D014F85E
:10027000010B05490028F6D1BDE810400A2000F026
:1002800007BA4FF0FF3010BDC8000020704770471C
:1002900070477047754600F02BF8AE46050069467A
:1002A000534620F00700854618B020B5FFF7C4FF7D
:1002B000BDE820404FF000064FF000074FF0000867
:1002C0004FF0000BAC46ACE8C009ACE8C009ACE8A4
:1002D000C009ACE8C00921F007018D46704710B590
:1002E0000446AFF300802046BDE81040FFF78FBF03
:1002F00000487047080000204FF0000200B5134688
:1003000094469646203922BFA0E80C50A0E80C5035
:10031000B1F12001BFF4F7AF090728BFA0E80C50E6
:1003200048BF0CC05DF804EB890028BF40F8042BDF
:1003300008BF704748BF20F8022B11F0804F18BF4C
:1003400000F8012B70470000FEE700007047000036
:10035000FEE70000FEE70000704700007047000065
:1003600040F66260C0F60000FFF77ABF70470000F9
:10037000704700004EF68850CEF20000026841F24D
:10038000040142F47002C4F20201026051F8042C2C
:1003900042F0010241F8042C51F8042C9207FBD5DD
:1003A0000A6842F0F0020A600A6822F003020A605A
:1003B0000A6812F00C0FFBD151F8042C4FF6FF73B2
:1003C000CFF6F2631A4041F8042C00220A60CA6298
:1003D0004FF41F024A604FF0006140F8801C7047E4
:1003E00040F21040C4F200000168C90708BF70471E
:1003F0006FF00101016040F268010020C2F20001CB
:100400004FF6FF7203E000BF01300C2809D031F82D
:100410003030002BF8D093421CBF013B21F8303024
:10042000F2E740F21C10C2F20000018801310180A5
:1004300070470000FEE7000040F22C11C2F20001FC
:100440000A7841F21040B2FA82F35B09C4F201006B
:100450000B704FF400512AB1016040F67660C0F68F
:10046000000004E0416040F69C60C0F6000080B5EA
:10047000FFF7F6FE40F6E360C0F60000BDE88040FE
:10048000FFF7EEBE2DE9F04381B040F22810C2F232
:1004900000000468002C00F0F880002505260127E4
:1004A0004FF042084FF031090DE022691030A07082
:1004B00012B120469047E17801F0F800E070A46A9C
:1004C000002C00F0E280A16820798847E27851078B
:1004D00002D0218801312180B0EBD21F02D102F07D
:1004E000C7010EE007EBD20101F0070302F0C701DC
:1004F00041EAC301032BE17004D302F0470141EA52
:10050000C011E17001F007000428D5D80FF20802ED
:1005100002EB8002974600BF00F008B800F02DB84B
:1005200000F041B800F063B800F016B8A378C8B284
:10053000C1F38012B2EBD01F03F00F0065D1E26867
:10054000A0701AB120469047A078E17800F0F00042
:1005500001302580A07054E0A378C8B2C1F38012A6
:10056000B2EBD01F03F00F009FD1616A6030002909
:10057000A070A4D020468847A1E7C8B2C1F380127A
:10058000B2EBD01F44D12088C92898D3A078226A22
:1005900066F31F10A07012B120469047E17801F079
:1005A000F80004308AE7C8B2C1F38012B2EBD01F62
:1005B0003CD1A078E16800F00F00A07011B1204696
:1005C0008847A07800F00F010F2906D0411C01F0E8
:1005D0000F0100F0F0000844A070616909B12046E5
:1005E0008847E078258000F0F800033066E7C8B25D
:1005F000C1F38012B2EBD01F2BD120883D28FFF42D
:100600005EAF01F0F800013058E78030A07056E787
:10061000A078226967F31F10A07012B1204690479E
:10062000E17801F0F8002580023047E720883D2876
:10063000FFF445AFA07800F00F0002281ED001287B
:100640007FF43AAFA26984F80290002A7FF431AFB8
:1006500032E7A078216967F31F10A07009B1204626
:10066000884720883B2805D8E078258000F0F800EE
:10067000023023E7E07800F0F8001FE7E26984F831
:100680000280002A7FF415AF16E701B0BDE8F083C1
:1006900043F60001C4F201010A681206FCD50246C5
:1006A0006FF35F224A6000BF0A685206FCD57047AC
:1006B000B0B58B790A88032B0BD07BB949792829EF
:1006C00001F00F0E18D0182908BF0261110616D1CB
:1006D0002EE04FF0000E110611D129E003F0080CB6
:1006E0000B79C97903F00403634401F0030103EBC0
:1006F000010E110603D11BE04261110618D0002340
:100700004FF00F0C002104E00131082903F104032C
:100710000ED022FA01F4E407F6D004680CFA03F5CF
:10072000AC43046004680EFA03F52C430460EBE765
:10073000B2F5807F38BFB0BD120A00234FF00F0C16
:10074000002104E00131082903F104030ED022FA4C
:1007500001F4E407F6D044680CFA03F5AC434460B6
:1007600044680EFA03F52C434460EBE7B0BD00008B
:1007700082B041F20406C4F2020656F8040C40F0BE
:10078000010046F8040C00BF56F8040C8007FBD5A6
:10079000306840F0F0003060306820F003003060D6
:1007A000306810F00C0FFBD156F8040C4FF6FF71B7
:1007B000CFF6F261084046F8040C00204FF41F0108
:1007C0003060F062716056F8041C41F0010146F897
:1007D000041C0090009880087C2807D800980130FD
:1007E00000900098B0F5FA7FF8D300BF56F8040CDB
:1007F0008007FBD53068012120F4803030603068FC
:1008000061F395403060306861F35E70306030684D
:1008100040F00040306056F8040C40F0807046F81C
:10082000040C00BF56F8040C8001FBD5306804218D
:1008300061F3CD203060306861F30A2030603068A9
:100840000A2161F3071030603068022161F3010072
:10085000306000BF306800F00C000828FAD100209A
:100860000090009989087C2907D800BF00990131C0
:1008700000910099B1F5FA7FF8D33168082262F34C
:10088000071131600090009880087C2807D800BFCD
:100890000098013000900098B0F5FA7FF8D33068E6
:1008A00041F2002B20F0F00030603068C0F27A0B8B
:1008B00000F00C00082858461ED1306831683268B4
:1008C000C1F38341C2F3417213015D1C0F292B4612
:1008D00018BF0223002A18BF2B46C00303EB0100F8
:1008E00005D53168890302D400FB0BF004E040F623
:1008F0000011C0F23D01484340F20009C2F2000974
:10090000C9F80000316840F64A62C1F30311C0F62D
:100910000002515C4EF21002C840CEF20002C9F84B
:10092000000010684DF6836140F004001060D9F8B3
:100930000000C4F21B31A0FB0101880C40F224111D
:10094000C2F20001086008684FF47A71484340F22F
:100950002011C2F200010860706941F20048C4F23F
:10096000010840F0200040F200477061C0F210170B
:100970004FF400556946404601970095FFF798FEF1
:1009800070694FF4804440F0200070616946404631
:1009900001970094FFF78CFE7069694640F02000D3
:1009A000706101974FF4004740460097FFF780FEC3
:1009B000C8F81050C8F81040C8F810707069A8F551
:1009C000406A40F00400706142F60000C0F200107E
:1009D00001900125694650460095FFF769FE706950
:1009E000694640F480407061706940F004007061B5
:1009F00040F20040C0F2081001904FF400700090E7
:100A00005046FFF755FE306800F00C0008281FD153
:100A1000306831683268C1F38341C2F34172130117
:100A20005F1C0F293B4618BF0223002A18BF3B4614
:100A3000C00303EB010005D53168890302D400FB34
:100A40000BFB05E040F60011C0F23D0100FB01FB8D
:100A5000306840F64A61C0F30310C0F60001085C3C
:100A60003168316840F65A62C1F3C221C0F6000213
:100A7000515C2BFA00F0C84000EB80004BF2C5310E
:100A80004000C9F2A211A0FB011245F2D521CEF619
:100A90000411A0FB010130683068100C0A0D02EB54
:100AA0008203A0EB4300042843F60C00C4F20100CB
:100AB00088BF05EB115250F8041C4FF6FF739943A1
:100AC000114440F8041C016840F2284221F480518E
:100AD00001604168042721F4405141600168C4F27B
:100AE000000241F0080101600168092341F400514E
:100AF0000160B06941F2597140F00200B061D9F86B
:100B00000000CDF2B711A0FB01014FF0FF3000EB68
:100B10005131C4F2000753601160D7F810144FF63A
:100B2000FF0341F00101C7F81014D7F8081400249E
:100B300041F00101C7F808144EF60C51CEF2000145
:100B40000A681A4040F20033C0F2FA531A430A60AE
:100B50000968C1F3022181F00702042A28BF042298
:100B6000033900FA02F038BF214625EA0000884028
:100B70004EF21D410001CEF2000108704EF210014C
:100B80004FF00050CEF20001C1F8F000D7F8FC039E
:100B90004FF4005540F00100C7F8FC037069694646
:100BA00040F02000706140F20040C0F2101001904F
:100BB00040460095FFF77CFDC8F8105040F2341510
:100BC000C2F2000528462C21FFF796FB4FF4814026
:100BD000688040F61960C0F60000A86040F2281056
:100BE000C2F20000016840F23942C0F600022C71E6
:100BF000AA6131B10A4600BFAA4204D0926A002A13
:100C0000FAD1A962056040F6C160C0F600004FF657
:100C1000FF75FFF725FBB069694640F00100B06140
:100C2000706940F0040070610220009040F20040C2
:100C3000C0F2081001905046FFF73AFD4FF0804196
:100C400008684FF6FF7C40F48060C0F2030C086037
:100C50000CF54020B862002078623B69062643F01C
:100C600001033B610B6823F070030B600B6823F4F6
:100C700040730B6040F22D13C2F200031E80012668
:100C8000C3F8020098715E713E68FC6926F4006644
:100C90003E603E6824F0A0043E603E6826F4806614
:100CA0003E603E683E601E787A6906F0070622F4D0
:100CB000E04242EA06327A611E79DA7844EAC616E0
:100CC00046EA4212FA615E799B7922F0500242EACA
:100CD000831242EA0612FA61C7F834C07A6942F414
:100CE00000627A610A6842F080020A600A6842F093
:100CF00001020A6040F26801C2F20001002200BF56
:100D000001EBC20321F8325001320C2A5860F7D1AE
:100D100040F66260C0F60000FFF7A2FA40F26801F8
:100D2000C2F2000140F261306FF00B02C0F6000029
:100D30000B4603E0013203F108030ED21F88AF42D5
:100D4000F8D05F688742F5D102F10C0040F6B83266
:100D500001EBC0001A80428016E040F26802C2F245
:100D600000020021134600BF1F88AF4205D00131A9
:100D70000C2903F10803F7D106E040F6B83702EB7F
:100D8000C1011F804F80486040F26804C2F2000435
:100D900040F285406FF00B01C0F60000224603E0F0
:100DA000013102F108020DD21388AB42F8D053682A
:100DB0008342F5D101F10C00052104EBC000118044
:100DC000418014E040F26802C2F2000200211346A2
:100DD0001F88AF4205D001310C2903F10803F7D178
:100DE00005E0052702EBC1011F804F804860002508
:100DF00005E000BF681CB0F10C0518BF054634F8CB
:100E000035000028F6D104EBC5004188406824F87D
:100E100035108047EEE7000000281CBF0020704717
:100E200040F60800C4F20100006800F001007047BD
:100E3000F1EE100A4FF6FF71C0F2C03120EA010056
:100E400040F04070E1EE100A704700000000000022
:100E50000000010203040607080900000000010267
:100E600003045B455D2068656C6C6F20776F726C66
:100E700064210D0A0D005B455D204C454432207411
:100E800075726E6564204F4646202853696E676C04
:100E90006520436C69636B290D0A0D005B455D207D
:100EA0004C454432207475726E6564204F4E202884
:100EB00053696E676C6520436C69636B290D0A0D7D
:100EC000005B455D204C454420616E642042757492
:100ED000746F6E20496E697469616C697A65640D1E
:100EE0000A0D005B455D20627574746F6E5F7369F7
:100EF0006E676C655F636C69636B5F63616C6C628A
:100F000061636B0D0A0D0000280F0008000000202F
:100F100008000000B4010008300F0008080000209D
:100F200058070000D401000800127A0000000000F9
:04000005080001519D
:00000001FF
