:020000040800F2
:10000000280700201D02000815030008010300084E
:1000100011030008F902000849040008000000006C
:100020000000000000000000000000009103000834
:10003000FD020008000000001903000895030008F5
:1000400037020008370200083702000837020008AC
:10005000370200083702000837020008370200089C
:10006000370200083702000837020008370200088C
:10007000370200083702000837020008370200087C
:10008000370200083702000837020008370200086C
:10009000370200083702000837020008370200085C
:1000A000370200083702000837020008370200084C
:1000B000370200080504000837020008370200086C
:1000C000370200083702000837020008370200082C
:1000D000370200083702000837020008370200081C
:1000E000370200083702000837020008370200080C
:1000F00037020008370200083702000837020008FC
:1001000037020008370200083702000837020008EB
:1001100037020008370200083702000837020008DB
:1001200037020008370200083702000837020008CB
:1001300037020008370200083702000837020008BB
:1001400037020008370200083702000837020008AB
:1001500000F002F800F052F814A696E8000CB24441
:10016000B344DA4501D100F049F8BAE80F000FA610
:1001700096E83000A5EB040504EB0607AAEB07049C
:10018000A7F101074FEA15154FEA3414A4F1010451
:10019000AC4201D300F032F813F0010F18BFFB1A84
:1001A00043F0010300F001F8DBE7184718090000ED
:1001B00038090000103A24BF78C878C1FAD852072D
:1001C00024BF30C830C144BF04680C6070470000D1
:1001D000704700000023002400250026103A28BFA5
:1001E00078C1FBD8520728BF30C148BF0B607047A9
:1001F0001FB500F031FC1FBD10B510BD00F04AF86E
:100200001146FFF7F5FF00F091F900F068F803B42C
:10021000FFF7F2FF03BCAFF30080000009488047FE
:1002200009480047FEE7FEE7FEE7FEE7FEE7FEE7D8
:10023000FEE7FEE7FEE7FEE704480549054A064BF0
:1002400070470000990300085101000828010020B0
:100250002807002028030020280300207047000002
:1002600010B5044603E000F0F1F8401C09D014F882
:10027000010B05490028F6D1BDE810400A2000F026
:10028000E5B84FF0FF3010BDC80000207047704740
:1002900070477047754600F02BF8AE46050069467A
:1002A000534620F00700854618B020B5FFF7C4FF7D
:1002B000BDE820404FF000064FF000074FF0000867
:1002C0004FF0000BAC46ACE8C009ACE8C009ACE8A4
:1002D000C009ACE8C00921F007018D46704710B590
:1002E0000446AFF300802046BDE81040FFF78FBF03
:1002F0000048704708000020FEE70000704700003B
:10030000FEE7000040F69E20C0F60000FFF7A8BF01
:10031000FEE70000704700007047000010B540F68F
:100320008A20C0F600004FF6FF74FFF799FF40F2F5
:10033000680240F21D300021C2F20002C0F6000047
:1003400003E000BF083160290AD0535AA342F9D014
:1003500053185B688342F5D14FF47A70505210BD48
:1003600040F2680CC2F2000C0021634606E000BFB8
:1003700001310C2903F1080308BF10BD1A88A242FD
:10038000F6D14FF47A720CEBC1011A80486010BDAF
:1003900070470000704700004EF68850CEF2000013
:1003A000026841F2040142F47002C4F202010260E8
:1003B00051F8042C42F0010241F8042C51F8042CAD
:1003C0009207FBD50A6842F0F0020A600A6822F040
:1003D00003020A600A6812F00C0FFBD151F8042CDA
:1003E0004FF6FF73CFF6F2631A4041F8042C002257
:1003F0000A60CA624FF41F024A604FF0006140F881
:10040000801C704740F21040C4F200000168C90728
:1004100008BF70476FF00101016040F268010020E1
:10042000C2F200014FF6FF7203E000BF01300C285A
:1004300009D031F83030002BF8D093421CBF013B7B
:1004400021F83030F2E77047FEE7000043F6000184
:10045000C4F201010A681206FCD502466FF35F225E
:100460004A6000BF0A685206FCD57047B0B58B7968
:100470000A88032B0BD07BB94979282901F00F0E8C
:1004800018D0182908BF0261110616D12EE04FF0CE
:10049000000E110611D129E003F0080C0B79C9797F
:1004A00003F00403634401F0030103EB010E1106A2
:1004B00003D11BE04261110618D000234FF00F0C4E
:1004C000002104E00131082903F104030ED022FACF
:1004D00001F4E407F6D004680CFA03F5AC430460B9
:1004E00004680EFA03F52C430460EBE7B2F5807F55
:1004F00038BFB0BD120A00234FF00F0C002104E0FA
:100500000131082903F104030ED022FA01F4E407B3
:10051000F6D044680CFA03F5AC43446044680EFA24
:1005200003F52C434460EBE7B0BD000082B041F21C
:100530000406C4F2020656F8040C40F0010046F826
:10054000040C00BF56F8040C8007FBD5306840F05F
:10055000F0003060306820F003003060306810F048
:100560000C0FFBD156F8040C4FF6FF71CFF6F26179
:10057000084046F8040C00204FF41F013060F06280
:10058000716056F8041C41F0010146F8041C00900B
:10059000009880087C2807D80098013000900098C7
:1005A000B0F5FA7FF8D300BF56F8040C8007FBD5EE
:1005B0003068012120F480303060306861F395406C
:1005C0003060306861F35E703060306840F0004049
:1005D000306056F8040C40F0807046F8040C00BF00
:1005E00056F8040C8001FBD53068042161F3CD205E
:1005F0003060306861F30A20306030680A2161F3AE
:10060000071030603068022161F30100306000BFE4
:10061000306800F00C000828FAD100200090009902
:1006200089087C2907D800BF009901310091009901
:10063000B1F5FA7FF8D33168082262F3071131600F
:100640000090009880087C2807D800BF00980130EF
:1006500000900098B0F5FA7FF8D3306841F2002896
:1006600020F0F00030603068C0F27A0800F00C0032
:10067000082840461ED1306831683268C1F3834192
:10068000C2F3417213015D1C0F292B4618BF0223D0
:10069000002A18BF2B46C00303EB010005D53168C3
:1006A000890302D400FB08F004E040F60011C0F218
:1006B0003D01484340F20009C2F20009C9F80000B8
:1006C000316840F6722BC1F30311C0F6000B1BF822
:1006D00001104EF21002C840CEF20002C9F800002C
:1006E00010684DF6836140F004001060D9F80000F6
:1006F000C4F21B31A0FB0101880C40F22011C2F2B0
:100700000001086008684FF47A71484340F21C11F8
:10071000C2F200010860706941F20044C4F20104B1
:1007200040F0200040F200477061C0F210174FF413
:10073000005A694620460197CDF800A0FFF796FEC3
:1007400070694FF4804540F0200070616946204692
:1007500001970095FFF78AFE7069694640F0200016
:10076000706101974FF4004720460097FFF77EFE27
:1007700041F21040C4F20100C0F800A0056007601B
:100780007069A4F5406540F00400706142F6000015
:10079000C0F2001001904FF0010A69462846CDF8DA
:1007A00000A0FFF763FE7069694640F48040706105
:1007B000706940F00400706140F20040C0F208101F
:1007C00001904FF4007000902846FFF74FFE30680C
:1007D00000F00C0008281FD1306831683268C1F37E
:1007E0008341C2F3417213015F1C0F293B4618BFBE
:1007F0000223002A18BF3B46C00303EB010005D5C6
:100800003168890302D400FB08F805E040F60011C6
:10081000C0F23D0100FB01F8306840F68222C0F3CF
:1008200003101BF8000031683168C0F60002C1F304
:10083000C221515C28FA00F0C84000EB80004BF266
:10084000C5314000C9F2A211A0FB011245F2D52129
:10085000CEF60411A0FB010130683068100C0A0DBF
:1008600002EB8203A0EB4300042843F60C00C4F221
:10087000010050F8043C4FF6FF7588BF0AEB115297
:1008800023EA0501114440F8041C01684FF22C02D0
:1008900021F4805101604168CFF6FE7221F440518D
:1008A00041600168092341F008010160016841F4D9
:1008B00000510160B06941F2597140F00200B0612D
:1008C000D9F80000CDF2B711A0FB01014FF0FF30C5
:1008D000A3504FF2280200EB5131CFF6FE72A15027
:1008E0004FF21401CFF6FE7162584FF6FF0342F04B
:1008F000010262504FF20C01CFF6FE71625842F0D5
:10090000010262504EF60C51CEF200010A681A4004
:1009100040F20033C0F2FA531A430A600968C1F387
:10092000022181F00702042A28BF04229040CB1E36
:100930002AEA00004FF0000138BF0B4698404EF203
:100940001D420001CEF2000210704EF210024FF074
:100950000050CEF20002C2F8F0004FF20000CFF6D5
:10096000FE70225842F00102225040F26804C2F2A6
:100970000004002004EBC00224F8305001300C28A1
:100980005160F7D140F6B620C0F60000FFF768FCD2
:1009900040F21D300021C0F6000002E0083160295D
:1009A0000AD0625AAA42F9D0621852688242F5D13E
:1009B0004FF47A70605214E040F26802C2F2000212
:1009C000002113461F88AF4205D001310C2903F1E5
:1009D0000803F7D105E04FF47A7702EBC1011F80DD
:1009E000486040F205300021C0F6000003E000BF7F
:1009F0000831602909D0625AAA42F9D062185268B7
:100A00008242F5D10A20605214E040F26802C2F23C
:100A100000020021134600BF1F88AF4205D00131FC
:100A20000C2903F10803F7D104E00A2702EBC10106
:100A30001F804860002604E0701CB0F10C0618BF4F
:100A4000064634F836000028F6D104EBC6004068AC
:100A500024F836508047EFE7F1EE100A4FF6FF71A9
:100A6000C0F2C03120EA010040F04070E1EE100A0F
:100A700070470000000000000000010203040607A8
:100A8000080900000000010203045B455D20686561
:100A90006C6C6F20776F726C64210D0A0D005B45E2
:100AA0005D204C4544207461736B2072756E6E69D5
:100AB0006E670D0A0D0068656C6C6F20776F726C45
:100AC00064210D00E80A0008000000200800000072
:100AD000B4010008F00A0008080000202007000008
:100AE000D40100080000000000127A00000000009D
:04000005080001519D
:00000001FF
