:020000040800F2
:10000000280700201D02000871030008690300088A
:100010006D030008F9020008F90300080000000061
:100020000000000000000000000000008503000840
:10003000FD020008000000007503000889030008A5
:1000400037020008370200083702000837020008AC
:1000500037020008370200080103000837020008D1
:10006000370200083702000837020008370200088C
:10007000370200083702000837020008370200087C
:10008000370200083702000837020008370200086C
:10009000370200083702000837020008370200085C
:1000A000370200083702000837020008370200084C
:1000B000370200083702000837020008370200083C
:1000C000370200083702000837020008370200082C
:1000D000370200083702000837020008370200081C
:1000E000370200083702000837020008370200080C
:1000F00037020008370200083702000837020008FC
:1001000037020008370200083702000837020008EB
:1001100037020008370200083702000837020008DB
:1001200037020008370200083702000837020008CB
:1001300037020008370200083702000837020008BB
:1001400037020008370200083702000837020008AB
:1001500000F002F800F052F814A696E8000CB24441
:10016000B344DA4501D100F049F8BAE80F000FA610
:1001700096E83000A5EB040504EB0607AAEB07049C
:10018000A7F101074FEA15154FEA3414A4F1010451
:10019000AC4201D300F032F813F0010F18BFFB1A84
:1001A00043F0010300F001F8DBE7184724080000E2
:1001B00044080000103A24BF78C878C1FAD8520722
:1001C00024BF30C830C144BF04680C6070470000D1
:1001D000704700000023002400250026103A28BFA5
:1001E00078C1FBD8520728BF30C148BF0B607047A9
:1001F0001FB500F0C9FB1FBD10B510BD00F04AF8D7
:100200001146FFF7F5FF00F069F900F068F803B454
:10021000FFF7F2FF03BCAFF30080000009488047FE
:1002200009480047FEE7FEE7FEE7FEE7FEE7FEE7D8
:10023000FEE7FEE7FEE7FEE704480549054A064BF0
:10024000704700008D0300085101000828010020BC
:100250002807002028030020280300207047000002
:1002600010B5044603E000F0C9F8401C09D014F8AA
:10027000010B05490028F6D1BDE810400A2000F026
:10028000BDB84FF0FF3010BDC80000207047704768
:1002900070477047754600F02BF8AE46050069467A
:1002A000534620F00700854618B020B5FFF7C4FF7D
:1002B000BDE820404FF000064FF000074FF0000867
:1002C0004FF0000BAC46ACE8C009ACE8C009ACE8A4
:1002D000C009ACE8C00921F007018D46704710B590
:1002E0000446AFF300802046BDE81040FFF78FBF03
:1002F0000048704708000020FEE70000704700003B
:1003000040F21C10C2F2000001684EF21000CEF262
:10031000000001EB8101416000218160016841F032
:1003200001010160016801F001110129FAD00168A1
:1003300021F0010101600021816040F21440C4F20B
:10034000010001210160D0F8F403C00708BF704725
:1003500040F20000C2F2000001780422042908BF24
:100360000122027070470000FEE70000FEE7000077
:10037000704700007047000040F6BA10C0F6000059
:10038000FFF76EBF70470000704700004EF68850C0
:10039000CEF20000026841F2040142F47002C4F29D
:1003A0000201026051F8042C42F0010241F8042CD1
:1003B00051F8042C9207FBD50A6842F0F0020A605B
:1003C0000A6822F003020A600A6812F00C0FFBD1DF
:1003D00051F8042C4FF6FF73CFF6F2631A4041F840
:1003E000042C00220A60CA624FF41F024A604FF0D8
:1003F000006140F8801C7047FEE7000043F60001F2
:10040000C4F201010A681206FCD502466FF35F22AE
:100410004A6000BF0A685206FCD57047B0B58B79B8
:100420000A88032B0BD07BB94979282901F00F0EDC
:1004300018D0182908BF0261110616D12EE04FF01E
:10044000000E110611D129E003F0080C0B79C979CF
:1004500003F00403634401F0030103EB010E1106F2
:1004600003D11BE04261110618D000234FF00F0C9E
:10047000002104E00131082903F104030ED022FA1F
:1004800001F4E407F6D004680CFA03F5AC43046009
:1004900004680EFA03F52C430460EBE7B2F5807FA5
:1004A00038BFB0BD120A00234FF00F0C002104E04A
:1004B0000131082903F104030ED022FA01F4E40704
:1004C000F6D044680CFA03F5AC43446044680EFA75
:1004D00003F52C434460EBE7B0BD000082B041F26D
:1004E0000405C4F2020555F8040C40F0010045F87B
:1004F000040C00BF55F8040C8007FBD5286840F0B9
:10050000F0002860286820F003002860286810F0B8
:100510000C0FFBD155F8040C4FF6FF71CFF6F261CA
:10052000084045F8040C00204FF41F012860E862E1
:10053000696055F8041C41F0010145F8041C009065
:10054000009880087C2807D8009801300090009817
:10055000B0F5FA7FF8D300BF55F8040C8007FBD53F
:100560002868012120F480302860286861F39540D4
:100570002860286861F35E702860286840F00040B9
:10058000286055F8040C40F0807045F8040C00BF5A
:1005900055F8040C8001FBD52868042161F3CD20B7
:1005A0002860286861F30A20286028680A2161F31E
:1005B000071028602868022161F30100286000BF4D
:1005C000286800F00C000828FAD10020009000995B
:1005D00089087C2907D800BF009901310091009952
:1005E000B1F5FA7FF8D32968082262F30711296070
:1005F0000090009880087C2807D800BF0098013040
:1006000000900098B0F5FA7FF8D3286841F2002AEC
:1006100020F0F00028602868C0F27A0A00F00C0090
:10062000082850461ED1286829682A68C1F38341EA
:10063000C2F3417213015F1C0F293B4618BF02230E
:10064000002A18BF3B46C00303EB010005D529680B
:10065000890302D400FB0AF004E040F60011C0F266
:100660003D01484340F20401C2F2000108602A68DB
:1006700040F6A218C2F30312C0F6000818F80220D0
:100680004EF2100BD0400860CEF2000BDBF80000F9
:1006900041F2004440F00400CBF8000008684DF639
:1006A0008361C4F21B31A0FB0101880C40F22011D0
:1006B000C2F20001086008684FF47A71484340F2C2
:1006C0001C11C2F200010860686940F2004640F067
:1006D0002000C4F201046861C0F210164FF4005902
:1006E000694620460196CDF80090FFF797FE6869AD
:1006F0004FF4804740F0200068616946204601962B
:100700000097FFF78BFE6869694640F0200068613A
:1007100001964FF4004620460096FFF77FFEC4F88E
:10072000109027612661686940F20C4740F0040090
:10073000686142F60000C4F20107C0F2001007F53C
:100740007D7401904FF0010969462046CDF8009074
:10075000FFF764FE68694FF6FF0240F00100686130
:100760000820C4F20100016821F00F010160016856
:100770000160D0F8F81321F00101C0F8F813D0F8A7
:10078000FC1321F00101C0F8FC13D0F8F81341F07C
:100790000101C0F8F813D0F8001421F00101C0F8ED
:1007A0000014396821F001013960D0F800140027E5
:1007B00041F00101C0F800144EF60C50CEF20000DA
:1007C0000168114040F20032C0F2FA521143016058
:1007D00000684EF20640CEF2000007704020CBF8D1
:1007E000F0006869694640F480406861686940F0DB
:1007F0000400686140F20040C0F2081001904FF41C
:10080000007000902046FFF709FE286800F00C00F9
:1008100008281FD1286829682A68C1F38341C2F3D8
:10082000417213015E1C0F29334618BF0223002AB0
:1008300018BF3346C00303EB010005D529688903BF
:1008400002D400FB0AFA05E040F60011C0F23D01B7
:1008500000FB01FA286840F6B212C0F3031018F842
:10086000000029682968C0F60002C1F3C221515C6A
:100870002AFA00F0C84000EB80004BF2C53140007E
:10088000C9F2A211A0FB011245F2D521CEF6041146
:10089000A0FB010128682868080D00EB80035B427B
:1008A0005B0003EB1242042A43F60C02C4F201027D
:1008B00052F8043C4FF6FF7488BF09EB115023EA4D
:1008C0000401084442F8040C106840F2680520F462
:1008D000805010605068C2F2000520F44050506013
:1008E000106840F008001060106840F4005010607C
:1008F000002000BF05EBC00125F8304001300C2876
:100900004F60F7D140F6BA10C0F60000FFF7A8FC20
:1009100040F279300021C0F6000002E00831602981
:100920000AD06A5AA242F9D06A1852688242F5D1B6
:100930004FF4FA70685214E040F26802C2F200020A
:10094000002113461F88A74205D001310C2903F16D
:100950000803F7D105E04FF4FA7702EBC1011F80DD
:100960004860002605E000BF701CB0F10C0618BFFF
:10097000064635F836000028F6D105EBC60040687B
:1009800025F836408047EFE7F1EE100A4FF6FF7189
:10099000C0F2C03120EA010040F04070E1EE100AE0
:1009A0007047000000000000000001020304060779
:1009B000080900000000010203045B455D20686532
:1009C0006C6C6F20776F726C64210D0A0D00000053
:1009D000F00900080000002008000000B401000831
:1009E000F80900080800002020070000D4010008D2
:0809F0000100000000127A0072
:04000005080001519D
:00000001FF
