:020000040800F2
:10000000D0060020250200088105000879050008B7
:100010007D05000809050008FD0500080000000036
:10002000000000000000000000000000890500083A
:100030000D05000800000000850500088D0500087A
:100040003F0200083F0200083F0200083F0200088C
:100050003F0200083F020008110500083F020008A7
:100060003F0200083F0200083F0200083F0200086C
:100070003F0200083F0200083F0200083F0200085C
:100080003F0200083F0200083F0200083F0200084C
:100090003F0200083F0200083F0200083F0200083C
:1000A0003F0200083F0200083F0200083F0200082C
:1000B0003F0200083F0200083F0200083F0200081C
:1000C0003F0200083F0200083F0200083F0200080C
:1000D0003F0200083F0200083F0200083F020008FC
:1000E0003F0200083F0200083F0200083F020008EC
:1000F0003F0200083F0200083F0200083F020008DC
:100100003F0200083F0200083F0200083F020008CB
:100110003F0200083F0200083F0200083F020008BB
:100120003F0200083F0200083F0200083F020008AB
:100130003F0200083F0200083F0200083F0200089B
:100140003F0200083F0200083F0200083F0200088B
:1001500000F002F800F057F814A696E8000CB2443C
:10016000B344DA4501D100F04EF8BAE80F000FA60B
:1001700096E83000A5EB040504EB0607AAEB07049C
:10018000A7F101074FEA15154FEA3414A4F1010451
:10019000AC4201D300F037F813F0010F18BFFB1A7F
:1001A00043F0010300F001F8DBE71847B00B000053
:1001B000D00B0000103A24BF78C878C1FAD8520793
:1001C00024BF30C830C144BF04680C6070470000D1
:1001D000704700000023002400250026103A28BFA5
:1001E00078C1FBD8520728BF30C148BF0B607047A9
:1001F000642900F07980002070471FB500F074FD7D
:100200001FBD10B510BD00F04DF91146FFF7F5FF09
:1002100000F066FA00F06BF903B4FFF7F2FF03BCDD
:10022000AFF300800948804709480047FEE7FEE732
:10023000FEE7FEE7FEE7FEE7FEE7FEE7FEE7FEE796
:1002400004480549054A064B70470000910500081F
:1002500051010008D0000020D0060020D00200206C
:10026000D0020020704700000FB4044910B503AA63
:10027000029800F0E9F810BC5DF814FB680000205B
:100280002DE9F0410E460446002020622046E16838
:10029000884730B3252805D0D4E901219047206A4A
:1002A000401CF2E7E168204600278847050018D087
:1002B000A5F14100192802D820354FF400673246D5
:1002C000294620462760FFF793FF40B1012804D05C
:1002D000F61D26F007060836D8E7361DD6E728466D
:1002E000DAE7206ABDE8F0812DE9F04106460024F6
:1002F00010687529314616A510D0AFF3008000288C
:1003000002DA404213A507E031688A0701D512A539
:1003100002E0490704D511A5012401E0AFF30080F4
:1003200000210A2206F1240709E0B0FBF2FCB0FB31
:10033000F2F302FB1C00303078541846491C0028A8
:10034000F3D123462A463046BDE8F04100F022B8FA
:10035000000000002D0000002B0000002000000025
:1003600010B5044603E000F04BF9401C09D014F826
:10037000010B05490028F6D1BDE810400A2000F025
:100380003FB94FF0FF3010BD680000207047704744
:10039000704770472DE9F0470D469946924604464E
:1003A00000F124080168880604D5E06921F01001F5
:1003B000216000E00120A84201DD471B00E000278A
:1003C000A1697A1902EB0900081AA0612078C00619
:1003D00002D42046AFF30080002608E0D4E90121D2
:1003E0001AF806009047206A401C761C20624E4591
:1003F000F4DB2078C0060AD52046AFF3008006E083
:10040000D4E9012130209047206A401C2062381E28
:10041000A7F10107F4DC07E0D4E9012118F8050091
:100420009047206A401C2062281EA5F10105F3DCDC
:100430002046AFF300802078000602D50220BDE8F8
:10044000F0870120FBE70000074B70B50D467B44A9
:1004500000F011F80446284600F020F810B14FF0E3
:10046000FF3070BD204670BDAF01000001694A1C1D
:1004700002610878704700B58FB0CDE901310021E5
:10048000059105497944CDE9031011466846FFF707
:10049000F7FE0FB000BD0000E5FFFFFF007B00F09E
:1004A00080007047754600F02BF8AE46050069469F
:1004B000534620F00700854618B020B5FFF7C0FE70
:1004C000BDE820404FF000064FF000074FF0000855
:1004D0004FF0000BAC46ACE8C009ACE8C009ACE892
:1004E000C009ACE8C00921F007018D46704710B57E
:1004F0000446AFF300802046BDE81040FFF78CBEF5
:100500000048704708000020FEE700007047000028
:1005100040F2C000C2F2000001684EF21000CEF2BC
:10052000000001EB8101416000218160016841F020
:1005300001010160016801F001110129FAD001688F
:1005400021F0010101600021816040F21440C4F2F9
:10055000010001210160D0F8F403C00708BF704713
:1005600040F20000C2F2000001780422042908BF12
:100570000122027070470000FEE70000FEE7000065
:10058000704700007047000070470000704700008F
:100590004EF68850CEF20000026841F2040142F4A7
:1005A0007002C4F20201026051F8042C42F0010210
:1005B00041F8042C51F8042C9207FBD50A6842F04C
:1005C000F0020A600A6822F003020A600A6812F068
:1005D0000C0FFBD151F8042C4FF6FF73CFF6F263EA
:1005E0001A4041F8042C00220A60CA624FF41F022C
:1005F0004A604FF0006140F8801C7047FEE7000041
:1006000043F60001C4F201010A681206FCD5024655
:100610006FF35F224A6000BF0A685206FCD570473C
:10062000B0B58B790A88032B0BD07BB9497928297F
:1006300001F00F0E18D0182908BF0261110616D15B
:100640002EE04FF0000E110611D129E003F0080C46
:100650000B79C97903F00403634401F0030103EB50
:10066000010E110603D11BE04261110618D00023D0
:100670004FF00F0C002104E00131082903F10403BD
:100680000ED022FA01F4E407F6D004680CFA03F560
:10069000AC43046004680EFA03F52C430460EBE7F6
:1006A000B2F5807F38BFB0BD120A00234FF00F0CA7
:1006B000002104E00131082903F104030ED022FADD
:1006C00001F4E407F6D044680CFA03F5AC43446047
:1006D00044680EFA03F52C434460EBE7B0BD00001C
:1006E00082B041F20408C4F2020858F8040C40F049
:1006F000010048F8040C00BF58F8040C8007FBD533
:10070000D8F8000040F0F000C8F80000D8F8000069
:1007100020F00300C8F80000D8F8000010F00C0F1B
:10072000FAD158F8040C4FF6FF71CFF6F261084089
:1007300048F8040C00204FF41F01C8F80000C8F866
:100740002C00C8F8041058F8041C41F0010148F8C6
:10075000041C0090009880087C2807D8009801307D
:1007600000900098B0F5FA7FF8D300BF58F8040C59
:100770008007FBD5D8F80000012120F48030C8F8AC
:100780000000D8F8000061F39540C8F80000D8F8E0
:10079000000061F35E70C8F80000D8F8000040F077
:1007A0000040C8F8000058F8040C40F0807048F889
:1007B000040C00BF58F8040C8001FBD5D8F80000E9
:1007C000042161F3CD20C8F80000D8F8000061F3DF
:1007D0000A20C8F80000D8F800000A2161F30710C9
:1007E000C8F80000D8F80000022161F30100C8F841
:1007F000000000BFD8F8000000F00C000828F9D174
:1008000000200090009989087C2906D800990131C0
:1008100000910099B1F5FA7FF8D3D8F800100822BA
:1008200062F30711C8F800100090009880087C2837
:1008300007D800BF0098013000900098B0F5FA7F0B
:10084000F8D3D8F8000041F2002620F0F000C8F8F4
:100850000000D8F80000C0F27A0600F00C0008286A
:10086000304621D1D8F80000D8F80010D8F8002080
:10087000C1F38341C2F3417213015F1C0F293B4650
:1008800018BF0223002A18BF3B46C00303EB010038
:1008900005D5D8F80010890301D4704304E040F670
:1008A0000011C0F23D01484340F20401C2F20001D0
:1008B0000860D8F8002040F60253C2F30312C0F6D5
:1008C00000039A5C4EF21005D040CEF2000508609D
:1008D000286840F2C00740F00400286008684DF620
:1008E0008361C4F21B31A0FB0101880C40F2C401FA
:1008F000C2F20001086008684FF47A714843C2F2FE
:1009000000073860D8F8140041F21046C4F201061E
:1009100040F02000C8F8140040F2004B4FF40050A3
:10092000A6F1100940F60804C0F2101B00906946B9
:100930004846C4F20104CDF804B0FFF771FED8F8C0
:1009400014004FF4804A40F02000C8F814006946B3
:100950004846CDF804B0CDF800A0FFF761FED8F806
:100960001400694640F02000C8F81400CDF804B027
:100970004FF4004B4846CDF800B0FFF751FE4FF45E
:1009800000503060C6F800A0C6F800B0D8F81400D7
:10099000A4F1080940F00400C8F8140042F6000071
:1009A000C0F2001001900120009069464846FFF710
:1009B00037FED8F814004FF0000B40F00100C8F8E3
:1009C00014000820C4F20100016821F00F01016049
:1009D00001680160D0F8F81321F00101C0F8F813A4
:1009E000D0F8FC1321F00101C0F8FC13D0F8F81383
:1009F00041F00101C0F8F813D0F8001421F0010112
:100A0000C0F800144FF60441CFF6FF71625822F08F
:100A100001026250D0F800144FF6FF0241F00101CC
:100A2000C0F800144EF60C50CEF2000001681140E0
:100A300040F20032C0F2FA521143016000684EF2F7
:100A40000640CEF2000080F800B04020C5F8F0006B
:100A5000D8F81400694640F48040C8F81400D8F86B
:100A6000140040F00400C8F8140040F20040C0F246
:100A7000081001904FF4007000904846FFF7D0FD39
:100A8000D8F8000041F2002E00F00C00C0F27A0EFF
:100A9000082824D1D8F800C0D8F80010D8F80020D1
:100AA000C1F38341C2F341721301581C0F2903465D
:100AB00018BF0223002A18BF03465FEACC3003EBBD
:100AC000010006D5D8F80010890302D400FB0EFE01
:100AD00005E040F60011C0F23D0100FB01FED8F830
:100AE000000040F60251C0F30310C0F60001085C9C
:100AF000D8F80010D8F8001040F61252C1F3C22105
:100B0000C0F60002515C2EFA00F0C84000EB8000F5
:100B10004BF2C5314000C9F2A211A0FB011245F20F
:100B2000D521CEF60411A0FB0101D8F80000D8F8B9
:100B30000000080D00EB80035B425B0003EB1242F8
:100B4000042A4FF0010288BF02EB115043F60C015A
:100B5000C4F2010151F8042C4FF6FF739A4310447C
:100B600041F8040C086820F480500860486820F4BC
:100B700040504860086840F008000860086840F489
:100B80000050086040F63950C0F60000FFF7E8FB5F
:100B90004FF4005030604FF4804030604FF400401C
:100BA00040F2BC0A3060C2F2000A9AF8000040F23B
:100BB000C808C2F200084FF03209C10703D100BFD4
:100BC0002168C9071ED12168C90704BF00208AF81F
:100BD0000000396801EB810149006960C5F808B07F
:100BE000296841F001012960296801F001110129FA
:100BF000FAD0296821F001012960C5F808B0C107C1
:100C0000DED0E0E701208AF80000386800EB8000C1
:100C100040006860C5F808B0286840F0010028600E
:100C2000286800F001100128FAD0286820F001009F
:100C30002860C5F808B02068C00701D10120C8E7C6
:100C400098F800004FF48042411CC8B2032888BFC6
:100C5000012188F800104FF40050C9B230603260B2
:100C600001294FF40042326008D0022908D003293C
:100C70000FD1706002224FF4804002E0002201E0B8
:100C80000122706040F61A50C0F6000030F81200E1
:100C90007060642082B2332A06D33A68323802FB8D
:100CA00009F26A6004E000BF3868504368600020C1
:100CB000C5F808B02A6842F001022A602A6802F0EA
:100CC0000112012AFAD02A6822F001022A600204E5
:100CD000C5F808B0DED140F62050C0F60000FFF79E
:100CE000C3FA9AF8000074E7F1EE100A4FF6FF71AC
:100CF000C0F2C03120EA010040F04070E1EE100A7D
:100D00007047000000000000000001020304060715
:100D100008090000000001020304002000400080D8
:100D2000427574746F6E20707265737320636F7593
:100D30006E743A2025640D0A004154333246343033
:100D40003320426F617264204C454420436F6E74BF
:100D5000726F6C2044656D6F0D000000800D0008FF
:100D60000000002008000000B4010008880D000801
:100D700008000020C8060000D401000800000000A0
:080D80000100000000127A00DE
:04000005080001519D
:00000001FF
